:020000000C945E
:1000020038000C9400000C9400000C9400000C9436
:1000120065000C9400000C9400000C9400000C94F9
:1000220000000C9400000C9400000C9400000C944E
:1000320000000C9400000C9400000C9400000C943E
:1000420000000C9400000C9400000C9400000C942E
:1000520000001027E80364000A00010000100001FC
:100062001000010080C00200600166000000F894E8
:10007200EE27ECBBF1E0FBBFEBBFE5BF8DE0A2E0FA
:10008200BB27ED938A95E9F780E094E0A0E6ED9333
:100092000197E9F7E8E6F0E085919591009761F024
:1000A200A591B59105901590BF01F00105900D92B3
:1000B2000197E1F7FB01F0CFEFE5EDBFE4E0EEBF22
:1000C200C0E6D1E00C9481000A921A92FA926A93E5
:1000D2007A938A939A93AA93BA93EA93FA93EFB78D
:1000E200EA933FD0E991EFBFF991E991B991A991D2
:1000F2009991899179916991F9901990099018953E
:10010200E0E0EABBEBBBE7BBE8BBE4BBE5BBE1BBC2
:10011200E2BBE3BFE2BFECBFEFBDEEBDEDBDECBDA8
:10012200E7BDE6BDEBBDEABDE9BDE8BDE2BDE2E08B
:10013200E5BDE0E0E4BDE3BDE0E4E9BFE0E0E5BF4A
:10014200E4BFEAB9E0E8E8B9E0E0E0BFE6B9EDB95A
:10015200E6BFA0E10E94EF007894EFEFE7BBFFCF8C
:10016200FFCF0E941D01E0E3E8BB0E941D01E0E613
:10017200E8BB0E941D01E0ECE8BB0E941D01E0E922
:10018200E8BB0895AA93E5B3EF70AE2FE881E07F54
:10019200EA2BE5BB8DE08A95F1F7AA9A8DE08A9564
:1001A200F1F7AA988DE08A95F1F744C0AA93A88145
:1001B200E9DFE881E295E883A881E4DF85E88A95B2
:1001C200F1F738C0A2E00E942101ACE0EFDFA1E02C
:1001D2000E942101E0E04E2E5E2E0895AA93E4B320
:1001E200E06FE4BBA29AA09AA19AAA98A898A998AB
:1001F2007880E881E058E0936201E881E054E0937E
:100202006301A4E1B0E00E942F010E9427010E9435
:1002120027010E942701A0E2B5DF88EC90E0019758
:10022200F1F7A8E2C3DFA4E0C1DFA5E8BFDFA6E0E3
:10023200BDDFC8DF21960895A8EEB3E00C942F012C
:100242000E94D700A3E0B0E00C942F01A0E30E942B
:10025200C30088EC90E00197F1F70895109639F009
:1002620080ED97E00197F1F7A8951197C9F70895E6
:00000001FF
