:0E0000000C943C000C9400000C9400000C9436
:10000E0000000C9400000C9400000C9400000C9462
:10001E0000000C9400000C9400000C9400000C9452
:10002E0000000C9400000C9400000C9400000C9442
:10003E0000000C9400000C9400000C9400000C9432
:10004E0000000C9400001027E80364000A00010071
:10005E0000100001100001002564000D0A203C3C38
:10006E002020256420203E3E0000F894EE27ECBBB5
:10007E00F1E0FBBFEBBFE5BF8DE0A2E0BB27ED9348
:10008E008A95E9F780E094E0A0E6ED930197E9F711
:10009E00EFE5EDBFE4E0EEBFC0E6D1E00C94570013
:1000AE00E0E0EABBEBBBE7BBE8BBE4BBE5BBE1BB17
:1000BE00E2BBE3BFE2BFECBFEFBDEEBDEDBDECBDFD
:1000CE00E7BDE6BDEBBDEABDE9BDE8BDE2BDE5BD00
:1000DE00E4BDE3BDE9BFE5BFE4BFEBB9E8E1EAB9D2
:1000EE00E6E8E0BDE0E0E0BDE3E3E9B9E0E8E8B969
:1000FE00E0E0E0BFE6B9EDB9E6BF02D0FECFFFCF3C
:10010E00E6E6F0E00E94B2030E9459032696E9E665
:10011E00F0E00E94B2030E94E201269608955F9BD2
:10012E00FECFECB10895AA935D9BFECFE881ECB9AA
:10013E0021960895BA93AA93AA81F5DFA881B98171
:10014E00ED91FD913196FE93EE9323960895BA9319
:10015E00AA9326970E94290410E0AC85BD85E0E0A5
:10016E00F0E0ED93FC93EA89FB893196EA8BFB8BE9
:10017E003197E4912E2FE03009F415C1E12FE030D4
:10018E0039F4253211F411E002C00E94BE030AC1F7
:10019E00E130A9F4253219F40E94BE0302C112E027
:1001AE0040E000E02D3211F401E0FCC02B3211F4DE
:1001BE004BE2F8C0203211F440E2F4C002C0E2304B
:1001CE0039F450E013E0203311F40068EBC003C0A3
:1001DE00E33009F0E7C0203310F02A3308F007C0EF
:1001EE00AAE05A9F502DE22FE0535E0FDBC0E22FA4
:1001FE00E33649F40E94C503E889F989A481AA93DC
:10020E000E94CB03CEC0E33741F40E94C5030E9487
:10021E00D1030E9476031E2F0AC0E03761F40E94BC
:10022E00C5030E94D1030E9482031E2F0860026044
:10023E000F7730E034C0E43611F0E93611F4046083
:10024E0002C0E53731F4E4E5F0E0EE83FF8315E01C
:10025E000CC0E83511F4086003C0E83709F0A1C0FE
:10026E00EEE5F0E0EE83FF8314E002FF14C00E947F
:10027E00C5030E94DB03AB85AA233AF4EA85FB850E
:10028E000E940B04EA87FB874DE2403011F01F5F9E
:10029E0001C00B7F04C00E94C5030E94DB0300FD5A
:1002AE0011C0151778F407FF08C002FF04C00B7FBA
:1002BE00242F115001C020E301C020E20E94BE0392
:1002CE005150EFCF312F01FF17C03030A1F003FF97
:1002DE0006C0EE81FF812591EE83FF8305C0AE81BE
:1002EE00BF812D91AE83BF830E94BE03503009F0B3
:1002FE0051503150EACF4BC020E3EE81FF810E9476
:10030E002004E887F987EE81FF813296EE83FF8322
:10031E00E885F985AA85BB85AE17BF0750F02F5F1C
:10032E00A885B985EA85FB85EA1BFB0BEA87FB8767
:10033E00EFCF2A3328F003FF02C0295F01C0295DE9
:10034E0004FD1AC0213320F4A885B985119709F44C
:10035E0009C0531710F000FF01C013C020E207FFC1
:10036E000BC020E3006102FF07C00B7F4A930E947F
:10037E00CB03503009F051500E94BE03503009F0AB
:10038E0051503150A885B985129708F0B5CF00FFAE
:10039E0008C0503031F05150E0E2EA930E94CB0396
:1003AE00F8CF10E0E0CEAC85BD850E941C040E9403
:1003BE00300464960895FF92F82E26971A930A93A6
:1003CE00DE0114960E9407048D01E0E0EC83ED83BC
:1003DE00EE83EF83DE0118960E94E303E1EAF0E07C
:1003EE00FA93EA93DE011896B2DE198108812896F7
:1003FE00FF900895BA93AA931A93A981BA81E0E067
:10040E00EC93AB81BC81EC911E2FE03019F0E0E053
:10041E00EC9302C084DE1E2FE12F188125960895DD
:10042E00FF92BA93AA9324970E942904E0E0F0E089
:10043E00E887F9874E2FE889F9893196E88BF98B91
:10044E003197E4913E2FE03009F425C10E94EC0370
:10045E00C1F0EDB7FEB7FA93EA934F930E94F10302
:10046E004F913E2FE03019F00E94EC0309F407C0C3
:10047E000E94F7031CF4EFEFFFEF0FC1EACF432FFB
:10048E0009C1353209F0EEC050E0E889F98935919D
:10049E00E88BF98B303310F03A3308F007C0AAE03E
:1004AE005A9F502DE32FE0535E0FEFCF303009F4FB
:1004BE00F2C0EDB7FEB7FA93EA934F930E94F103A1
:1004CE004F912E2FAE2F0E949803E03039F00E94EC
:1004DE00F7031CF4EFEFFFEFE0C0EBCF203009F491
:1004EE00D1C0422F503009F45FEFE32FE33699F479
:1004FE000E94FC03EDB7FEB7FA93EA934F930E9466
:10050E00F1034F91D801EC930E94F7031CF4EFEF27
:10051E00FFEFC3C0A1C0E33741F50E94FC03E52FF6
:10052E005150E030F1F0EDB7FEB7FA93EA934F93E6
:10053E000E94F1034F913E2FE03019F00E94EC0320
:10054E0039F00E94F7031CF4EFEFFFEFA6C009C0CD
:10055E001F930F930F5F1F4FE32FAF91BF91EC933C
:10056E00DECFD801E0E0EC9377C06894F1F8E89420
:10057E00F2F8E32FE43611F0E93619F4E894F1F8C5
:10058E0002C0E53711F42AE008C0E83711F420E183
:10059E0004C0E53209F466C07EC0E0E0EE83EF836E
:1005AE006894F0F8E52F5150E03009F446C0EDB7ED
:1005BE00FEB7FA93EA934F930E94F1034F913E2FA9
:1005CE00E13238F40E94F7031CF4EFEFFFEF65C041
:1005DE0017C0F1FC08C06894F1F83D3211F4F2F83E
:1005EE00E1CF3B32F9F2203131F4A32F0E94A30365
:1005FE00E03031F009C0A32F0E948F03E03021F4C8
:10060E00F0FC49C0432F19C0313610F0375505C0E4
:10061E00313410F0375301C03053E22FAE81BF8119
:10062E00F0E00E941404DF01E32FF0E0EA0FFB1F5D
:10063E00EE83FF83E894F0F8B5CF0E94FC03F2FE40
:10064E0006C0EE81FF810E940B04EE83FF83EE81D4
:10065E00FF81D801ED93FC93E885F9853196E88703
:10066E00F98718C0EDB7FEB7FA93EA934F930E943D
:10067E00F1034F91E31771F00E94F7031CF4EFEFB3
:10068E00FFEF0BC0E885F985309719F4EFEFFFEF18
:10069E0004C001C0D0CEE885F9850E943004629670
:1006AE00FF900895FF92F82E23971A930A93DE0176
:1006BE0011960E9407048D01E0E0EB83EC83DE01CE
:1006CE0015960E94E303E1E0F2E0FA93EA93DE016D
:1006DE001896A6DE198108812596FF900895BA9383
:1006EE00AA93A991B991EE27FF276D91662311F078
:1006FE003196FBCF0895BA93AA93AA27BB27E99107
:10070E00F9910590002011F01196FBCFFD0108958F
:10071E00AA93E1E0F991F03310F0FA3308F0EE27E6
:10072E000895AA93E1E0F991F03229F0F93010F032
:10073E00FE3008F0EE270895AA93E1E0F991F05308
:10074E0040F0FA3038F0FF75F750FA3010F0F03113
:10075E0008F0EE270895FA93EA93E0916001F09184
:10076E0061010E940F040E94240484E008952A93DC
:10077E00AD85BE85EF85F88909950895E889F989D3
:10078E003497E88BF98B0895AD85BE85EF85F88992
:10079E0009950895A889B98914960E941C04EE83C0
:1007AE00FF83AE81BF810895A889B98914960E94EE
:1007BE001C04EA87FB8708950E9407040E941C040C
:1007CE00FA93EA931A930A930895A32F0E9498031B
:1007DE00E0300895AC85BD85EE85FF8509950895B9
:1007EE00AA85BB85AC91A0300895EE85FF85349720
:1007FE00EE87FF87AE85BF8514960D911C910895E7
:10080E000024AF0DB01D0895F195E195F0400895C7
:10081E006F2F660F660B762F0895FA9FF02DEB9FC4
:10082E00F00DEA9FE02DF10D0895ED91FC911197D9
:10083E0008950590F491E02D08957A936A93FA93B2
:10084E00EA9308955A934A933A932A931A930A93E2
:10085E0008955D814C813B812A811981088108951B
:00000001FF
