:060000000C9459010C9460
:1000060000000C9400000C9400000C9400000C946A
:1000160000000C9400000C9400000C9400000C945A
:1000260000000C9400000C9486010C9400000C94C3
:10003600B0010C9400000C9400000C9400000C9489
:1000460000000C9400000C9400000C940000102793
:10005600E80364000A00010000100001100001001E
:100066000000000000000000320001000000000057
:10007600000000000000000000000000000000007A
:10008600000000000000000000000000000000006A
:10009600000000000000000000000000000000005A
:1000A600000000000000000000000000000000004A
:1000B6000D2054783A202563200D0054783A2025E7
:1000C60063000D2052783A20446174613D25632017
:1000D600262031302A446174613D256330200D00AD
:1000E600643D256320262031302A643D2563300097
:1000F6000D2052783A204C43442064656C65746543
:1001060064200D006C63642064656C65746564200E
:1001160021000D2052783A2048656C703A200D2A4D
:100126002A2A2A2A2A2A2A2A2A2A2A2A0D4D6963AB
:10013600726F2070726F636573736F72206C616289
:10014600200D2A2A2A2A2A2A2A2A2A2A2A2A2A203A
:100156000D3C3C656E642068656C703E3E005278CE
:100166003A2048656C703A2A4C41422A000D2052CA
:10017600783A20656E64206F662054686973205053
:10018600617274000D2050617274203220456E64D5
:1001960020262050617274203320537461727420BB
:1001A6000D005061727433205374617274000D2017
:1001B60052783A20696E74707574206C6574746533
:1001C600722069732027256327200D0052783A692B
:1001D6006E747075742069732027256327000D20BF
:1001E60054783A2025730D0054783A202573000D73
:1001F6002052783A20546865206672616D652069E0
:100206007320636F72726563740D0052783A66727A
:10021600616D6520697320636F7272656374000D8A
:100226002052783A204672616D65206D7573742090
:100236006265203520696E74656765720D004672C9
:10024600616D65206D7573742035696E74656765BB
:1002560072000D2052783A20496E636F72726563A0
:1002660074206672616D652073697A650D00496E4A
:10027600636F7272656374206672616D652073695F
:100286007A65000080C001000200660006000400D6
:10029600680001006E016E000100820170000E0010
:1002A60060010A01020095018A020000F894EE2717
:1002B600ECBBF1E0FBBFEBBFE5BF8DE0A2E0BB27E7
:1002C600ED938A95E9F780E094E0A0E6ED93019737
:1002D600E9F7ECE8F2E085919591009761F0A59138
:1002E600B59105901590BF01F00105900D9201970B
:1002F600E1F7FB01F0CFEFE5EDBFE4E0EEBFC0E6CE
:10030600D1E00C94E2010A921A92FA926A937A93D5
:100316008A939A93AA93BA93EA93FA93EFB7EA93D6
:100326001A930A931BB10CB1A0916E01A23319F472
:10033600A02F78D002C0A02F0BD109911991E99175
:10034600EFBFF991E991B991A99199918991799123
:100356006991F990199009901895EA93FA93EFB775
:10036600EA93882061F08A94E92D9394F0E0E357AC
:10037600FE4FE081ECB9E8E0E91509F49924E9912A
:10038600EFBFF991E9911895AA93E8E0E815E9F32A
:10039600F894882011F45D990DC0E62D6394F0E081
:1003A600E357FE4FA881A083E8E0E61509F466242A
:1003B600839402C0E881ECB978940C94AB05E0E034
:1003C600EABBEBBBE7BBE8BBE4BBE5BBE1BBE2BB1F
:1003D600E3BFE2BFECBFEFBDEEBDEDBDECBDE7BDDB
:1003E600E6BDEBBDEABDE9BDE8BDE2BDE5BDE4BDE8
:1003F600E3BDE9BFE5BFE4BFEBB9E8EDEAB9E6E87E
:10040600E0BDE0E0E0BDE3E3E9B9E0E8E8B9E0E05B
:10041600E0BFE6B9EDB9E6BFA0E10E947F0578949A
:10042600FFCFFFCFAA93A29782E2A0E0B0E0E2E777
:10043600F0E00E94DC06AAA1A03310F0AA3308F06F
:100446001EC00E94D7050E94E605E8ECF0E00E9477
:100456000306E8A50E940C0688E0D0D22A960E94E0
:100466001206E6EEF0E0FA93EA93EEA10E940C067D
:10047600EAA50E940C0688E093D22C9660C0AAA139
:10048600A43411F0A43679F40E94D705E6EFF0E023
:100496000E9403060E9416060E944D050E941B0636
:1004A600A0E6B1E052C0AAA1A83411F0A83679F4AA
:1004B6000E94D7050E94E605E8E1F1E00E942006C9
:1004C6000E941206E4E6F1E00E94270638C0AAA1BF
:1004D600A53411F0A536F1F4E3E7F1E00E94200619
:1004E6000E942E06E5E7F1E00E9427060E941B0601
:1004F6000E943506EAE8F1E00E9420060E941206F4
:10050600E8EAF1E00E9427060E943906E3E3E09359
:100516006E011DC00E94D7050E94E605E4EBF1E0DE
:100526000E9403060E9416060E941206E2EDF1E002
:10053600FA93EA93EEA10E940C060E944106E0E0BF
:10054600EA93A1E00E944005DE010E946E05ADC05F
:10055600AA93A29782E2A0E0B0E0E4E9F0E00E946C
:10056600DC06EAA1E0938401EFE6F1E0FA93EA9370
:10057600A4E8B1E00E94AD05AAA1A13410F0AB3702
:1005860008F005C0E0E0E0938201E0938301AAA1B0
:10059600A83221F40E944606109709F003C0EFEF37
:1005A600FFEF7FC00E944B06309709F47EC0AAA1D8
:1005B600A93209F069C00E944606159731F4A09148
:1005C6008201B0918301119709F013C00E94500671
:1005D6000E942E060E945B060E941B060E9435069C
:1005E600E5EFF1E00E9420060E941206E1E1F2E04A
:1005F60030C00E944606159731F4A0918201B09151
:100606008301109709F013C00E9450060E942E061F
:100616000E945B060E941B060E943506E5E2F2E098
:100626000E9420060E941206E4E4F2E012C00E9434
:1006360050060E942E060E945B060E941B060E9420
:100646003506E8E5F2E00E9420060E941206E4E77D
:10065600F2E0FA93EA9380E0A3D124960E94390649
:10066600E0E0E0938001E0938101EFE6F1E0FA93A8
:10067600EA93E0ECF0E00E942706E1E0F0E0E09388
:100686008201F093830111C00E944606AF3FEFEF4F
:10069600BE0721F40E944B06329603C00E944B0609
:1006A6003196E0938001F0938101A3960895BA9361
:1006B600AA93AA810E94C701A881B9810E946606F1
:1006C6000C947D05BA93AA931A930A93AA81BB81C7
:1006D60012960E94C106309729F1AA81BB81149611
:1006E6000E94C1068F01309761F00230E0E01E07DC
:1006F60080F0F80131978F01AA81BB811496ED93A2
:10070600FC93AA81BB8112960E9466063197AC8142
:10071600A083AA81BB810E94C106FF2312F00E941A
:10072600660606C0AA81BB81EFEFFFEFED93FC934F
:100736001981088125960895BA93AA9326970E944F
:10074600CE0610E0AC85BD85E0E0F0E0ED93FC93CD
:10075600EA89FB893196EA8BFB8B3197E4912E2F40
:10076600E03009F415C1E12FE03039F4253211F4F7
:1007760011E002C00E946C060AC1E130A9F42532DC
:1007860019F40E946C0602C112E040E000E02D322E
:1007960011F401E0FCC02B3211F44BE2F8C0203218
:1007A60011F440E2F4C002C0E23039F450E013E044
:1007B600203311F40068EBC003C0E33009F0E7C052
:1007C600203310F02A3308F007C0AAE05A9F502DB4
:1007D600E22FE0535E0FDBC0E22FE33649F40E94BE
:1007E6007306E889F989A481AA930E947906CEC086
:1007F600E33741F40E9473060E947F060E94BE05FD
:100806001E2F0AC0E03761F40E9473060E947F061D
:100816000E94CA051E2F086002600F7730E034C0C0
:10082600E43611F0E93611F4046002C0E53731F41C
:10083600E4E5F0E0EE83FF8315E00CC0E83511F443
:10084600086003C0E83709F0A1C0EEE5F0E0EE83EA
:10085600FF8314E002FF14C00E9473060E948906FB
:10086600AB85AA233AF4EA85FB850E94BD06EA8792
:10087600FB874DE2403011F01F5F01C00B7F04C0C3
:100886000E9473060E94890600FD11C0151778F4B0
:1008960007FF08C002FF04C00B7F242F115001C0C0
:1008A60020E301C020E20E946C065150EFCF312FA9
:1008B60001FF17C03030A1F003FF06C0EE81FF81B3
:1008C6002591EE83FF8305C0AE81BF812D91AE8356
:1008D600BF830E946C06503009F051503150EACF68
:1008E6004BC020E3EE81FF810E94C506E887F987A9
:1008F600EE81FF813296EE83FF83E885F985AA852E
:10090600BB85AE17BF0750F02F5FA885B985EA856E
:10091600FB85EA1BFB0BEA87FB87EFCF2A3328F020
:1009260003FF02C0295F01C0295D04FD1AC02133FF
:1009360020F4A885B985119709F409C0531710F05A
:1009460000FF01C013C020E207FF0BC020E30061D7
:1009560002FF07C00B7F4A930E947906503009F0C8
:1009660051500E946C06503009F051503150A88504
:10097600B985129708F0B5CF00FF08C0503031F0A6
:100986005150E0E2EA930E947906F8CF10E0E0CEFB
:10099600AC85BD850E94C1060E94D5066496089561
:1009A600FF92F82E26970E94D0060E949106309755
:1009B60019F4EFEFFFEF1DC0DE0116960E94B9068F
:1009C6008D010E949106EE83FF83E0E0E887E987C8
:1009D600DE011A960E949806E5E6F3E0FA93EA939A
:1009E600DE011A96A9DE9F01AE81BF81E0E0EC939D
:1009F600F9010E94D7062A96FF900895FF92F82ED5
:100A060026971A930A93DE0114960E94B9068D0161
:100A1600E0E0EC83ED83EE83EF83DE0118960E941F
:100A26009806EAE5F3E0FA93EA93DE01189684DE87
:100A3600198108812896FF900895AA93E5B3EF706F
:100A4600AE2FE881E07FEA2BE5BB8DE08A95F1F7D2
:100A5600AA9A8DE08A95F1F7AA988DE08A95F1F722
:100A660077C0AA93A881E9DFE881E295E883A881A7
:100A7600E4DF85E88A95F1F76BC0AA93E881F0E098
:100A8600EB56FE4FE081A981AE0FEBDFB980A8805F
:100A960022960895A2E00E94A106ACE0E2DFA1E062
:100AA6000E94A106E0E0AE2EBE2E0895AA93A8816C
:100AB600AA3011F0BD1448F0E0E0EA93A394AA2D01
:100AC600DCDFA881AA3009F443C0B394A89AA881B0
:100AD600C8DFA8983DC0BA93AA931A93A981BA8190
:100AE600ED91A983BA831E2FE03019F0A12FDEDF26
:100AF600F5CF188123960895AA93E4B3E06FE4BB7B
:100B0600A29AA09AA19AAA98A898A998D880E881AA
:100B1600E058E0939701E881E054E0939801A4E15E
:100B2600B0E00E94AF060E94A7060E94A7060E9498
:100B3600A706A0E282DF88EC90E00197F1F7A8E231
:100B460090DFA4E08EDFA5E88CDFA6E08ADFA2DFD7
:100B560021960895BA93AA93E991F991A991B99129
:100B6600CD016D916623E9F7119761916D93662327
:100B7600E1F7FC010895BA93AA93A991B991EE27DA
:100B8600FF276D91662311F03196FBCF0895BA9336
:100B9600AA93AA27BB27E991F9910590002011F0A5
:100BA6001196FBCFFD010895E6EBF0E0FA93EA9388
:100BB600ECA1FF27662777270E94C90684E00E94DA
:100BC6000105269608950E944D05FE017196FA9339
:100BD600EA93E1ECF0E0FA93EA93EEA1FF276627A9
:100BE60077270E94C90684E00E94D3042896E0E095
:100BF600EA93A0E00E944005DE0151960C946E0532
:100C0600FA93EA93ECA1FF27662777270E94C90685
:100C16000895FF27662777270E94C9060895FE01D3
:100C2600FA93EA93089584E00E94010526960895B2
:100C3600E0E0EA93A0E00C944005FA93EA9380E0A2
:100C46000E94010522960895FA93EA9380E00E9495
:100C5600D304249608950E944D05FE017196FA93D9
:100C6600EA930895DE0151960C946E05E0E0EA934E
:100C7600A1E00E944005DE010C946E0584E00E940E
:100C8600D30428960895A0918001B091810108951A
:100C9600E0918001F09181010895E4EEF1E0FA938C
:100CA600EA93EFE6F1E0662777270E94C906BBCFF5
:100CB600EEEEF1E0FA93EA93EFE6F1E066277727A6
:100CC6000E94C906DBCFED91FD913196FE93EE931E
:100CD60008952A93AD85BE85EF85F889099508950F
:100CE600E889F9893497E88BF98B0895AD85BE8537
:100CF600EF85F88909950895A889B98914960E94FF
:100D0600C106EE83FF83AE81BF810895A889B989A4
:100D160014960E94C106EA87FB870895DE011C9699
:100D26000E94B9060E94C10608950E94B9060E9453
:100D3600C106FA93EA931A930A9308950E9434051A
:100D4600A3E0B0E00C94AF06A0E30E94200588EC77
:100D560090E00197F1F70895109639F080ED97E04D
:100D66000197F1F7A8951197C9F708950024AF0DDB
:100D7600B01D0895F195E195F0400895ED91FC912F
:100D8600119708950590F491E02D08957A936A934A
:100D9600FA93EA9308955A934A933A932A931A93A5
:100DA6000A9308955D814C813B812A8119810881CE
:100DB6000895AC0FBD1F05900D928A95E1F7089531
:00000001FF
