:060000000C942C000C948E
:1000060000000C9400000C9400000C9400000C946A
:1000160000000C9400000C9400000C9400000C945A
:1000260000000C9400000C9400000C9400000C944A
:1000360000000C9400000C9400000C9400000C943A
:1000460000000C9400000C9400000C9400007C92BC
:100056000000F894EE27ECBBF1E0FBBFEBBFE5BF79
:100066008DE0A2E0BB27ED938A95E9F780E094E066
:10007600A0E6ED930197E9F7E6E5F0E08591959125
:10008600009761F0A591B59105901590BF01F0011B
:1000960005900D920197E1F7FB01F0CFEFE5EDBF7B
:1000A600E4E0EEBFC0E6D1E00C94590008D00FD0D2
:1000B60028D03CD058D037D0F4D0FDCFFFCFE0E0E9
:1000C600EABBEFEFE7BBE4BBEFE0E1BB08951A93B1
:1000D6000A9300E010E000E010E00430E0E01E07C4
:1000E6007CF4EFEFE8BBA4EFB1E00E943402E0E05D
:1000F600E8BBA4EFB1E00E9434020F5F1F4FEDCFC3
:100106002FC0E0E857D1E0E455D1E0E253D1E0E179
:1001160051D1E8E04FD1E4E04DD1E2E04BD1E1E04E
:1001260049D1E0E801C0E9B3E8BB08951A930A9300
:100136000CEB12E0E0E0E2BBEFE646D1EFE744D19C
:10014600E7E042D1EDE740D1EDE63ED1E6E63CD12F
:10015600EFE43AD1EBE538D1E6E036D1EFE334D13E
:1001660009911991089528970E947502E9B3F0E064
:10017600EA87FB87E9B3F0E0E887F98729D1E887C2
:10018600F987E885F9853296D9F1E0E0EE83EF83C9
:10019600AE81BF811A9774F5E885F985EA87FB87F2
:1001A600AA85BB851AD123D1EEE0E2BB1A930A9346
:1001B60025D12ED11CD1EDE0E2BB3A932A931ED174
:1001C60031D115D1EBE0E2BB5A934A93A1E030D18D
:1001D600EA85FB85EC87FD87E7E0E2BBEC85FD85DC
:1001E600FA93EA93A0E024D1EE81FF813196EE8363
:1001F600FF83CECFE885F9853297E887F987C1CFA7
:100206000E947C022E960895BA93AA931A930A9393
:100216000C811D81002E012A11F4EFE338C0E1E0C4
:10022600F0E0E017F10711F4E6E031C0E2E0F0E0BB
:10023600E017F10711F4EBE52AC0E3E0F0E0E01780
:10024600F10711F4EFE423C0E4E0F0E0E017F10772
:1002560011F4E6E61CC0E5E0F0E0E017F10711F462
:10026600EDE615C0E6E0F0E0E017F10711F4EDE782
:100276000EC0E7E0F0E0E017F10709F408C0E8E097
:10028600F0E0E017F10711F4EFE701C0EFE6E5BB98
:10029600AA81BB81119709F4AF9A19810881269624
:1002A600089560970E947502E9B3F0E0EA8BFB8B34
:1002B600E9B3F0E0E88BF98B8BD0E88BF98BE88912
:1002C600F989329609F472C0E0E08499E1E0EF879B
:1002D600E0E08599E1E0EE87E0E08699E1E0ED87F0
:1002E600E0E08799E1E0EC87E0E0EE83EF83AE8122
:1002F600BF811A970CF054C0E889F989EA8BFB8B09
:10030600AA89BB896AD09AD0EEE0E2BBEF85E030DD
:1003160011F49BD002C01A930A93A0E0B0E074DFF8
:1003260099D076D08BD0EDE0E2BBEE85E03011F4CB
:100336008CD002C03A932A93A0E0B0E065DF8AD061
:1003460071D07CD0EBE0E2BBED85E03019F47DD0D6
:10035600A0E003C05A934A93A1E0B0E055DFA5E0C0
:10036600B0E00E943402EA89FB89EC8BFD8BE7E062
:10037600E2BBEC85E03019F4E0E0F0E002C0EC8985
:10038600FD89FA93EA93A0E0B0E03EDFA5E0B0E095
:100396000E943402EE81FF813196EE83FF83A7CF60
:1003A600E889F9893297E88BF98B89CF0E947C021C
:1003B60066960895E8BB88EF94E20197F1F78FEF10
:1003C6009FEF0197F1F70895E5BBD8010C9434022D
:1003D600AAE0B0E00E944A020895E8EEF3E00E9427
:1003E60062028F01A8EEB3E00E944A020895AA8530
:1003F600BB85AE1BBF0BAA87BB870895A0E0B0E004
:1004060003DFA5E0B0E00E943402AA85BB8508950B
:10041600E4E6F0E00E9462029F01A4E6B0E00E94DA
:100426004A020895EAE0F0E00E946202AF01D0CFEE
:10043600B0E0EADEA5E0B0E00C943402AA89BB89FC
:10044600AE1BBF0BAA8BBB8B0895E0E0F0E0FA93DE
:10045600EA930895A5E0B0E00E943402AA89BB8918
:100466000895109639F080ED97E00197F1F7A89579
:100476001197C9F70895F195E195F0400895FA9F0F
:10048600F02DEB9FF00DEA9FE02DF10D08951CD0A5
:10049600F6DF0EF4F0DF08950024112490E1AA0F90
:1004A600BB1F001C111C0E1A1F0A18F40E0E1F1E6D
:1004B60001C0A1609A9599F7FD01D001089504D075
:1004C600EBDF0EF4D8DF0895E894F7FF02C0D3DF20
:1004D6006894B7FF06C0A095B095119600F80394EE
:1004E60000FA08955A934A933A932A931A930A93D1
:1004F60008955D814C813B812A8119810881089587
:00000001FF
