:060000000C942A000C9490
:1000060000000C9400000C9400000C9400000C946A
:1000160000000C9400000C9400000C9400000C945A
:1000260000000C9400000C9400000C9400000C944A
:1000360000000C9400000C9400000C9400000C943A
:1000460000000C9400000C9400000C940000F8943E
:10005600EE27ECBBF1E0FBBFEBBFE5BF8DE0A2E016
:10006600BB27ED938A95E9F780E094E0A0E6ED934F
:100076000197E9F7EFE5EDBFE4E0EEBFC0E6D1E0BA
:100086000C94450008D00FD028D04DD069D048D068
:1000960000D1FDCFFFCFE0E0EABBEFEFE7BBE4BB6B
:1000A600EFE0E1BB08951A930A9300E010E000E048
:1000B60010E00430E0E01E077CF4EFEFE8BBA4EFAD
:1000C600B1E00E94E301E0E0E8BBA4EFB1E00E94EA
:1000D600E3010F5F1F4FEDCF40C00E94EF0100E02C
:1000E60010E02BE430E000E010E00530E0E01E0711
:1000F6009CF4E0E822D1E0E420D1E0E21ED1E0E188
:100106001CD1E8E01AD1E4E018D1E2E016D1E1E032
:1001160014D10F5F1F4FE9CF0E94F6012496089570
:10012600E9B3E8BB08951A930A930CEB12E0E0EFEB
:10013600E2BBEFE606D1EFE704D1E7E002D1EDE757
:1001460000D1EDE6FED0E6E6FCD0EFE4FAD0EBE532
:10015600F8D0E6E0F6D0EFE3F4D0099119910895CE
:100166002497F3D0E0E0EB83F5D008870F83A885CA
:10017600A43610F0F8D0FBCFA885AA3028F04F5F40
:10018600E885EA50E887F8CF588510E01A3018F469
:10019600F1D01F5FFBCFAF81A03019F4AE81A03044
:1001A60031F1EE81E03021F4E8E0EE83015003C046
:1001B600EE81E250EE830F83EF81E88750E040E066
:1001C600E0E0E987A885A43610F0CDD0FBCFA8855E
:1001D600AA3028F04F5FE885EA50E887F8CF5885BF
:1001E60010E0123018F4C6D01F5FFBCFD4CF0E94A8
:1001F600F4012A960895BA93AA931A930A93EC8166
:10020600F0E08F01002E012A11F4EFE338C0E1E09F
:10021600F0E0E017F10711F4E6E031C0E2E0F0E0CB
:10022600E017F10711F4EBE52AC0E3E0F0E0E01790
:10023600F10711F4EFE423C0E4E0F0E0E017F10782
:1002460011F4E6E61CC0E5E0F0E0E017F10711F472
:10025600EDE615C0E6E0F0E0E017F10711F4EDE792
:100266000EC0E7E0F0E0E017F10709F408C0E8E0A7
:10027600F0E0E017F10711F4EFE701C0EFE6E5BBA8
:10028600AA81BB81119709F4AF9A19810881259635
:10029600089523975AD05ED00F83AF81A43638F0E5
:1002A600E885EF5FE887EF81E456EF83F6CFAF810D
:1002B600AA3028F04F5FEF81EA50EF83F8CF5F81D5
:1002C60010E01330B0F5E7E0E2BBEE81EA93A0E080
:1002D600B0E091DFD9010E94E301EBE0E2BB859932
:1002E60003C0E0E0EA9301C05A93A1E0B0E083DFE7
:1002F600D9010E94E301EDE0E2BB869903C0E0E08C
:10030600EA9301C04A93A1E0B0E075DFD9010E94EB
:10031600E301EEE0E2BB879902C0E0E001C0E885B8
:10032600EA93A1E0B0E067DFD9010E94E3011F5F15
:10033600C8CF0E94F40129960895E8BBD9010C9410
:10034600E301E5BBD8010C94E301E0E0E883E9832F
:10035600EA8308950E94ED0110E029E130E009B337
:1003660050E040E00895E985EF5FE987E885E456C7
:10037600E8870895E7E0E2BBEE81EA93A0E0B0E00B
:100386003ADFD9010E94E301EBE0E2BB5A93A1E018
:10039600B0E031DFD9010E94E301EDE0E2BB4A9310
:1003A600A0E0B0E028DFD9010E94E301EEE0E2BB65
:1003B600E985EA93A0E0B0E01EDFD9010C94E301E1
:1003C600109639F080ED97E00197F1F7A89511970F
:1003D600C9F708955A934A933A932A931A930A931C
:1003E60008955D814C813B812A8119810881089598
:00000001FF
