:040000000C942F002D
:100004000C9400000C9400000C9400000C9400006C
:100014000C9400000C9400000C9400000C9400005C
:100024000C9400000C9400000C9400000C9400004C
:100034000C9400000C9400000C9400000C9400003C
:100044000C9400000C9400000C9400000C9400002C
:100054003F065B4F666D7D077F6FF894EE27ECBB20
:10006400F1E0FBBFEBBFE5BF8DE0A2E0BB27ED9362
:100074008A95E9F780E094E0A0E6ED930197E9F72B
:10008400EFE5EDBFE4E0EEBFC0E6D1E00C944A003A
:10009400E4E0F0E0FA93EA93A4EFB1E036D01E2F47
:1000A400E0E1F3E2FA93EA93E3E0EA93A4E04DD0CB
:1000B400F7CFFFCFBA93AA93EA81FB81E130A0E0A6
:1000C400FA0729F4EFEFEABBE881EBBB1AC0E23090
:1000D400A0E0FA0729F4EFEFE7BBE881E8BB11C021
:1000E400E330A0E0FA0729F4EFEFE4BBE881E5BBD5
:1000F40008C0E430A0E0FA0721F4EFEFE1BBE881A7
:10010400E2BBE1E0F0E024960895BA93AA931A932F
:100114000A9300E010E0EC81FD810E171F0778F4CC
:10012400E2E0F0E0FA93EA93AFEFC5D0E2E0F0E06A
:10013400FA93EA93A0E0BFD00F5F1F4FECCFE1E04A
:10014400F0E01981088126960895AA932A978AE0F7
:10015400A0E0B0E0E4E5F0E00E94A3011A930A9362
:1001640000E010E00A30E0E01E070CF0A0C0A9D0C7
:1001740029F4EFE0EABBEEE0EBBB1AC0E230A0E00A
:10018400FA0729F4EFE0E7BBEEE0E8BB11C0E33087
:10019400A0E0FA0729F4EFE0E4BBEEE0E5BB08C019
:1001A400E430A0E0FA0721F4EFE0E1BBEEE0E2BBCB
:1001B4008ED0E8EEF3E092D029F4EFE0EABBEDE074
:1001C400EBBB1AC0E230A0E0FA0729F4EFE0E7BB8A
:1001D400EDE0E8BB11C0E330A0E0FA0729F4EFE05A
:1001E400E4BBEDE0E5BB08C0E430A0E0FA0721F48D
:1001F400EFE0E1BBEDE0E2BB6AD0E4E6F0E06ED014
:1002040029F4EFE0EABBEBE0EBBB1AC0E230A0E07C
:10021400FA0729F4EFE0E7BBEBE0E8BB11C0E330F9
:10022400A0E0FA0729F4EFE0E4BBEBE0E5BB08C08B
:10023400E430A0E0FA0721F4EFE0E1BBEBE0E2BB3D
:1002440046D0EAE0F0E04AD029F4EFE0EABBE7E088
:10025400EBBB1AC0E230A0E0FA0729F4EFE0E7BBF9
:10026400E7E0E8BB11C0E330A0E0FA0729F4EFE0CF
:10027400E4BBE7E0E5BB08C0E430A0E0FA0721F402
:10028400EFE0E1BBE7E0E2BB22D0EAE0F0E00E946D
:10029400A001DE011496AE0FBF1FAC91BB270ADF8D
:1002A400A5E0B0E00E9483010F5F1F4F5BCF19816F
:1002B400088160960895B0E0FDDEAA81BB810C94AC
:1002C4008301EC85F0E0E130A0E0FA070895ED85C4
:1002D400F0E0FA93EA93A889B98908950E948D0100
:1002E400DF01EAE0F0E00E94A001DE011496AE0F07
:1002F400BF1FAC91BB27DEDEA5E0B0E00E94830106
:10030400E0CF109639F080ED97E00197F1F7A895CA
:100314001197C9F708950024112490E1AA0FBB1F77
:10032400001C111C0E1A1F0A18F40E0E1F1E01C009
:10033400A1609A9599F7FD01D0010895ECDFFD01C4
:100344000895AC0FBD1F05900D928A95E1F70895AD
:00000001FF
