:0C0000000C943F000C9400000C940000D5
:10000C000C9400000C9400000C9477000C940000ED
:10001C000C9400000C946C000C9400000C940000E8
:10002C000C9400000C9400000C9400000C94000044
:10003C000C9400000C9400000C9400000C94000034
:10004C000C9400000C9400001027E80364000A00D4
:10005C000100001000011000010030300000000011
:10006C00000000002564000080C002006A017400DA
:10007C000000F894EE27ECBBF1E0FBBFEBBFE5BF53
:10008C008DE0A2E0BB27ED938A95E9F780E094E040
:10009C00A0E6ED930197E9F7E6E7F0E085919591FD
:1000AC00009761F0A591B59105901590BF01F001F5
:1000BC0005900D920197E1F7FB01F0CFEFE5EDBF55
:1000CC00E4E0EEBFC0E6D1E00C949300EA93FA931F
:1000DC00E1E0F0E0E0936001F0936101F991E991C6
:1000EC0018950A921A92FA926A937A938A939A932F
:1000FC00AA93BA93EA93FA93EFB7EA933DD0E991B6
:10010C00EFBFF991E991B991A9919991899179915F
:10011C006991F990199009901895E0E0EABBEBBB56
:10012C00E8E0E7BBE0E0E8BBE4BBE5BBE1BBE2BB7E
:10013C00EBE6E3BFE0E0E2BFECBFEFBDE2ECEEBD0F
:10014C00E0E0EDBDECBDE7BDE6BDEBBDEABDE9BD54
:10015C00E8BDE4E2E9BFA0E10E945303789402D029
:10016C00FECFFFCF1A930A930FEF10E009B31127BC
:10017C000CBF0991199108952A978AE0A0E0B0E08C
:10018C00E6E6F0E00E945F040E945304A091600137
:10019C00B0916101119761F4E0E0E0936001E093AC
:1001AC00610106B5112727B533270E949A0324C095
:1001BC0006B5112727B53327E0916201F091630151
:1001CC00E0936401F09365010E949A03E09166014B
:1001DC00F0916701E0936801F0936901A0916401CB
:1001EC00B0916501E0916201F0916301EA1BFB0B98
:1001FC00E0936601F0936701A0916601B0916701ED
:10020C00E0916801F0916901EA1BFB0BBF010F0142
:10021C00DF0175972CF4FD01EC3EAFEFFA078CF47F
:10022C00E8E1FCEFE015F1052CF0FB01E83EA3E062
:10023C00FA073CF4A0916601B09167010E944D044D
:10024C000CF020C0FE013496FA93EA93E0E7F0E05C
:10025C00FA93EA93E0916601F09167010E94FE0324
:10026C00A0EEB3E984E090E00E9428040E944804C8
:10027C0084E00E94C00228960E942103DE0114969D
:10028C000E9442030E945A042E960895BA93AA9390
:10029C001A930A93AA81BB8112960E94400430974C
:1002AC0059F1AA81BB8114960E9440048F013097AA
:1002BC0061F00230E0E01E0798F0F80131978F01F1
:1002CC00AA81BB811496ED93FC93AA81BB811296F3
:1002DC00ED91FD913196FE93EE933197AC81A08315
:1002EC00AA81BB810E944004FF232AF0ED91FD916D
:1002FC003196FE93EE9306C0AA81BB81EFEFFFEF20
:10030C00ED93FC931981088125960895BA93AA93CD
:10031C0026970E94510410E0AC85BD85E0E0F0E02A
:10032C00ED93FC93EA89FB893196EA8BFB8B319731
:10033C00E4912E2FE03009F415C1E12FE03039F4AF
:10034C00253211F411E002C00E94A5030AC1E1306C
:10035C00A9F4253219F40E94A50302C112E040E071
:10036C0000E02D3211F401E0FCC02B3211F44BE211
:10037C00F8C0203211F440E2F4C002C0E23039F48B
:10038C0050E013E0203311F40068EBC003C0E330FD
:10039C0009F0E7C0203310F02A3308F007C0AAE0B8
:1003AC005A9F502DE22FE0535E0FDBC0E22FE33655
:1003BC0049F40E94AC03E889F989A481AA930E94AC
:1003CC00B203CEC0E33741F40E94AC030E94B803E1
:1003DC000E9481031E2F0AC0E03761F40E94AC0317
:1003EC000E94B8030E948D031E2F086002600F77D5
:1003FC0030E034C0E43611F0E93611F4046002C088
:10040C00E53731F4E4E5F0E0EE83FF8315E00CC052
:10041C00E83511F4086003C0E83709F0A1C0EEE537
:10042C00F0E0EE83FF8314E002FF14C00E94AC03E3
:10043C000E94C203AB85AA233AF4EA85FB850E948D
:10044C00ED03EA87FB874DE2403011F01F5F01C0DE
:10045C000B7F04C00E94AC030E94C20300FD11C0BC
:10046C00151778F407FF08C002FF04C00B7F242F78
:10047C00115001C020E301C020E20E94A50351509D
:10048C00EFCF312F01FF17C03030A1F003FF06C0B2
:10049C00EE81FF812591EE83FF8305C0AE81BF8184
:1004AC002D91AE83BF830E94A503503009F05150AB
:1004BC003150EACF4BC020E3EE81FF810E9444040F
:1004CC00E887F987EE81FF813296EE83FF83E8851A
:1004DC00F985AA85BB85AE17BF0750F02F5FA8859D
:1004EC00B985EA85FB85EA1BFB0BEA87FB87EFCF17
:1004FC002A3328F003FF02C0295F01C0295D04FDE7
:10050C001AC0213320F4A885B985119709F409C0C4
:10051C00531710F000FF01C013C020E207FF0BC0FF
:10052C0020E3006102FF07C00B7F4A930E94B203D5
:10053C00503009F051500E94A503503009F0515031
:10054C003150A885B985129708F0B5CF00FF08C0C7
:10055C00503031F05150E0E2EA930E94B203F8CFF0
:10056C0010E0E0CEAC85BD850E9440040E9458048A
:10057C0064960895FF92F82E26970E9453040E94C9
:10058C00CA03309719F4EFEFFFEF23C0DE01169684
:10059C000E94E9038D010E94CA03EE83FF83E0E011
:1005AC00E887E987DE011A960E94E9030E9440045D
:1005BC00FA93EA931A930A93ECE4F1E0FA93EA9330
:1005CC00DE011A96A3DE9F01AE81BF81E0E0EC93C1
:1005DC00F9010E945A042A96FF900895AA93E5B354
:1005EC00EF70AE2FE881E07FEA2BE5BB8DE08A95BA
:1005FC00F1F7AA9A8DE08A95F1F7AA988DE08A9581
:10060C00F1F777C0AA93A881E9DFE881E295E88346
:10061C00A881E4DF85E88A95F1F76BC0AA93E8819D
:10062C00F0E0E659FE4FE081A981AE0FEBDF598077
:10063C00488022960895A2E00E94D103ACE0E2DF4C
:10064C00A1E00E94D103E0E04E2E5E2E0895AA9305
:10065C00A881AA3011F0571448F0E0E0EA934394D3
:10066C00A42DDCDFA881AA3009F443C05394A89AC6
:10067C00A881C8DFA8983DC0BA93AA931A93A98100
:10068C00BA81ED91A983BA831E2FE03019F0A12F06
:10069C00DEDFF5CF188123960895AA93E4B3E06FBB
:1006AC00E4BBA29AA09AA19AAA98A898A998788033
:1006BC00E881E058E0936C01E881E054E0936D012F
:1006CC00A4E1B0E00E94DF030E94D7030E94D7038D
:1006DC000E94D703A0E282DF88EC90E00197F1F74B
:1006EC00A8E290DFA4E08EDFA5E88CDFA6E08ADF2D
:1006FC00A2DF21960895BA93AA93A991B991EE27F6
:10070C00FF276D91662311F03196FBCF0895BA93B4
:10071C00AA93AA27BB27E991F9910590002011F023
:10072C001196FBCFFD010895F22FE0E0E02BF12BA9
:10073C000E94F903E0936201F093630108952A93F8
:10074C00AD85BE85EF85F88909950895E889F98905
:10075C003497E88BF98B0895AD85BE85EF85F889C4
:10076C0009950895A889B98914960E944004EE83CE
:10077C00FF83AE81BF810895A889B98914960E9420
:10078C004004EA87FB870895DE011C960E94E9036A
:10079C000E94400408950E940803A3E0B0E00C946A
:1007AC00DF03A0E30E94F40288EC90E00197F1F7DC
:1007BC000895109639F080ED97E00197F1F7A89520
:1007CC001197C9F708950024AF0DB01D0895F19548
:1007DC00E195F0400895F09560957095E195FF4F87
:1007EC006F4F7F4F0895F595E795F595E79508952B
:1007FC006F2F660F660B762F08953F934F935F9381
:10080C00002411244427552730E2AA0FBB1F881F50
:10081C00991F001C111C441F551F0E1A1F0A460B52
:10082C00570B28F40E0E1F1E461F571F01C0A16048
:10083C003A9559F7FD01BC01D001CA015F914F9166
:10084C003F91089504D0D9DF0EF4C5DF0895E894E4
:10085C0077FF02C0C0DF689497FF0BC00024A095FF
:10086C00B095809590951196801D901D00F803947D
:10087C0000FA0895ED91FC91119708950590F4916B
:10088C00E02D08957A936A93FA93EA9308950024DD
:10089C000A160B0608955A934A933A932A931A937D
:1008AC000A9308955D814C813B812A8119810881CD
:1008BC000895AC0FBD1F05900D928A95E1F7089530
:00000001FF
