:020000000C945E
:100002007B000C94A8000C94AC000C9400000C949F
:1000120000000C9400000C9400000C9400000C945E
:1000220000000C94B4000C9400000C9400000C949A
:1000320000000C9400000C9400000C9400000C943E
:1000420000000C9400000C94B0000C9400000C947E
:1000520000001027E80364000A00010000100001FC
:1000620010000100010005000100303000303000B6
:10007200303000303000202020202020202020207E
:1000820020202020200030303A30303A30303A30D0
:1000920030202020202000302564002564202020EC
:1000A200202020200046554C4C00322E3034386D32
:1000B2007300302E3235366D730080C00100A0010E
:1000C20066000100960168000100A3016A001000A9
:1000D2006001780011007001880005008101A7000D
:1000E20008008601AC0008008E01B4000200A401E1
:1000F200BC000000F894EE27ECBBF1E0FBBFEBBFC5
:10010200E5BF8DE0A2E0BB27ED938A95E9F780E099
:1001120094E0A0E6ED930197E9F7EEEBF0E085912C
:100122009591009761F0A591B59105901590BF0149
:10013200F00105900D920197E1F7FB01F0CFEFE599
:10014200EDBFE4E0EEBFC0E6D1E00C94C7000E9430
:10015200F30473D10DC00E94F30461D009C00E9460
:10016200F304CDD105C00E94F304E0EBE2BF74D0EA
:10017200E991EFBFF991E991B991A9919991899189
:1001820079916991F990199009901895E0E0EABB8C
:10019200EBBBE7BBE8BBE4BBE5BBE0E3E1BBE0E014
:1001A200E2BBE5E0E3BFE2EBE2BFE0E0ECBFE3EBA2
:1001B200EFBDEAE0EEBDE8EDEDBDE0EFECBDE7E25C
:1001C200E7BDEFE0E6BDE1E0EBBDE0E0EABDE1E086
:1001D200E9BDE0E0E8BDE2BDE5BDE2EBE4BDE0E0A3
:1001E200E3BDE1E0E9BFEBB7E06EEBBFEAE0E5BFFC
:1001F200E0E0E4BFE0EEEABFE0E0EAB9E0E8E8B957
:10020200E0E0E0BFE6B9EDB9E6BFA0E10E94AC04D0
:100212007894BC98BD9833D156D1FFCFFFCF53D13C
:10022200A0E0B0E055D1B49908C0E0E0E093A001AD
:10023200E093A101E1E0E093A201B5990CC0E0E0F6
:10024200E093A101A091A001A13019F4E1E0E093B3
:10025200A1010E94010508952C978CE0A0E0B0E076
:10026200ECE6F0E00E949A05E8EDEDBDE0EFECBDB2
:10027200A091A101A130E9F4E0E0E0939801E093BC
:100282009901E0939A01E0939B01E0939C01E09332
:100292009D01E0939E01E0939F010E940805A0E664
:1002A200B1E00E949B040E940805A0E7B1E00E9411
:1002B2009B04A091A201A13009F0BDC0E091980178
:1002C200F09199013196E0939801F0939901A091F0
:1002D2009801B0919901A436E0E0BE07B1F5E0E0E3
:1002E200E0939801E0939901E0919A01F0919B01CA
:1002F2003196E0939A01F0939B01A0919A01B091FB
:100302009B01DC9711F5E0E0E0939A01E0939B01F9
:10031200E0919C01F0919D013196E0939C01F09354
:100322009D01A0919C01B0919D01DC9771F4E0E0E8
:10033200E0939C01E0939D01E0919E01F0919F0169
:100342003196E0939E01F0939F01A0919801B091A4
:1003520099011A972CF40E940D05E9E9F0E004C016
:100362000E940D05EAE9F0E0FA93EA93E091980120
:10037200F09199010E941105A0919A01B0919B01FF
:100382001A972CF4FE0133960E941A0504C0FE014E
:1003920033960E941F05FA93EA93E0919A01F09135
:1003A2009B010E941105A0919C01B0919D011A9799
:1003B2002CF4FE0136960E941A0504C0FE01369600
:1003C2000E941F05FA93EA93E0919C01F0919D012E
:1003D2000E941105A0919E01B0919F011A972CF4E1
:1003E200FE0139960E941A0504C0FE0139960E9448
:1003F2001F05FA93EA93E0919E01F0919F010E94FA
:1004020011050E940805A9850E948604AA850E94FA
:100412002405AE810E948604AF810E942405AB812F
:100422000E948604AC810E942405A8810E94860451
:10043200A9810E9486042C960895B7990DC0A091B7
:100442009601B091970111973CF00E9429053197CE
:10045200E0939601F0939701B3990FC0A091960192
:10046200B0919701A83EE3E0BE073CF40E94290543
:100472003196E0939601F093970101D00895269763
:10048200E0E2E883E983EA83EB83EC83E0E0ED8357
:100492000E940D05EDE9F0E0FA93EA930E94290526
:1004A2000E941105E0E0EA93A1E00E946D040E941F
:1004B2002905309719F4A1E8B1E001C0DE010E94DC
:1004C2009B0426960895E0E0E3BFEEBDE5BD0895E6
:1004D200BA93AA93E881F981309719F4E5E0E3BF72
:1004E2000CC0A881B981119741F4A091A301A83051
:1004F20011F4E2E001C0E1E0EEBD0C947804A091B9
:10050200A301A13011F4E8E001C0E1E0E093A3010E
:10051200E0E0E093A1010E940105D5DFA1E0B0E097
:10052200D7DF01D00895E8E0EA93A1E00E946D04CC
:10053200A091A301A83019F4A6E8B1E002C0AEE888
:10054200B1E00E949B040895BA93AA931A930A9366
:10055200AA81BB8112960E947F05309759F1AA8128
:10056200BB8114960E947F058F01309761F00230A3
:10057200E0E01E0798F0F80131978F01AA81BB8154
:100582001496ED93FC93AA81BB811296ED91FD9195
:100592003196FE93EE933197AC81A083AA81BB8101
:1005A2000E947F05FF232AF0ED91FD913196FE9383
:1005B200EE9306C0AA81BB81EFEFFFEFED93FC93B0
:1005C2001981088125960895BA93AA9326970E94C5
:1005D2008C0510E0AC85BD85E0E0F0E0ED93FC9386
:1005E200EA89FB893196EA8BFB8B3197E4912E2FB6
:1005F200E03009F415C1E12FE03039F4253211F46D
:1006020011E002C00E942E050AC1E130A9F4253290
:1006120019F40E942E0502C112E040E000E02D32E2
:1006220011F401E0FCC02B3211F44BE2F8C020328D
:1006320011F440E2F4C002C0E23039F450E013E0B9
:10064200203311F40068EBC003C0E33009F0E7C0C7
:10065200203310F02A3308F007C0AAE05A9F502D29
:10066200E22FE0535E0FDBC0E22FE33649F40E9433
:100672003505E889F989A481AA930E943B05CEC079
:10068200E33741F40E9435050E9441050E94DA04D5
:100692001E2F0AC0E03761F40E9435050E94410511
:1006A2000E94E6041E2F086002600F7730E034C01B
:1006B200E43611F0E93611F4046002C0E53731F492
:1006C200E4E5F0E0EE83FF8315E00CC0E83511F4B9
:1006D200086003C0E83709F0A1C0EEE5F0E0EE8360
:1006E200FF8314E002FF14C00E9435050E944B05EF
:1006F200AB85AA233AF4EA85FB850E947605EA8750
:10070200FB874DE2403011F01F5F01C00B7F04C038
:100712000E9435050E944B0500FD11C0151778F4A3
:1007220007FF08C002FF04C00B7F242F115001C035
:1007320020E301C020E20E942E055150EFCF312F5D
:1007420001FF17C03030A1F003FF06C0EE81FF8128
:100752002591EE83FF8305C0AE81BF812D91AE83CB
:10076200BF830E942E05503009F051503150EACF1C
:100772004BC020E3EE81FF810E948305E887F98761
:10078200EE81FF813296EE83FF83E885F985AA85A3
:10079200BB85AE17BF0750F02F5FA885B985EA85E4
:1007A200FB85EA1BFB0BEA87FB87EFCF2A3328F096
:1007B20003FF02C0295F01C0295D04FD1AC0213375
:1007C20020F4A885B985119709F409C0531710F0D0
:1007D20000FF01C013C020E207FF0BC020E300614D
:1007E20002FF07C00B7F4A930E943B05503009F07D
:1007F20051500E942E05503009F051503150A885B9
:10080200B985129708F0B5CF00FF08C0503031F01B
:100812005150E0E2EA930E943B05F8CF10E0E0CEAF
:10082200AC85BD850E947F050E949305649608955C
:10083200FF92F82E26970E948E050E94530530974C
:1008420019F4EFEFFFEF23C0DE0116960E94720546
:100852008D010E945305EE83FF83E0E0E887E9877C
:10086200DE011A960E9472050E947F05FA93EA93AE
:100872001A930A93E5EAF2E0FA93EA93DE011A96F2
:10088200A3DE9F01AE81BF81E0E0EC93F9010E94FB
:1008920095052A96FF900895AA93E5B3EF70AE2FBF
:1008A200E881E07FEA2BE5BB8DE08A95F1F7AA9A11
:1008B2008DE08A95F1F7AA988DE08A95F1F777C0D5
:1008C200AA93A881E9DFE881E295E883A881E4DFC1
:1008D20085E88A95F1F76BC0AA93E881F0E0EC55C0
:1008E200FE4FE081A981AE0FEBDF5980488022964E
:1008F2000895A2E00E945A05ACE0E2DFA1E00E9466
:100902005A05E0E04E2E5E2E0895AA93A881AA30E1
:1009120011F0571448F0E0E0EA934394A42DDCDF91
:10092200A881AA3009F443C05394A89AA881C8DFC9
:10093200A8983DC0BA93AA931A93A981BA81ED915E
:10094200A983BA831E2FE03019F0A12FDEDFF5CF85
:10095200188123960895AA93E4B3E06FE4BBA29AA8
:10096200A09AA19AAA98A898A9987880E881E058B4
:10097200E093A601E881E054E093A701A4E1B0E08E
:100982000E9468050E9460050E9460050E94600541
:10099200A0E282DF88EC90E00197F1F7A8E290DF15
:1009A200A4E08EDFA5E88CDFA6E08ADFA2DF219635
:1009B2000895BA93AA93A991B991EE27FF276D9151
:1009C200662311F03196FBCF0895BA93AA93AA2712
:1009D200BB27E991F9910590002011F01196FBCF08
:1009E200FD0108950A921A92FA926A937A938A936F
:1009F2009A93AA93BA93EA93FA93EFB7EA93089574
:100A0200E1E0E093A001E0E0E093A2010895E0E0DC
:100A1200EA93A0E00C946D04FE01FA93EA93089520
:100A22000E947A050E94870584E00E941904289694
:100A32000895FA93EA93E9E9F0E00895FA93EA93C4
:100A4200EAE9F0E008950E948604AAE30C94860481
:100A5200E0919601F091970108952A93AD85BE85A4
:100A6200EF85F88909950895E889F9893497E88B23
:100A7200F98B0895AD85BE85EF85F88909950895AE
:100A8200A889B98914960E947F05EE83FF83AE81FF
:100A9200BF810895A889B98914960E947F05EA87C3
:100AA200FB870895DE011C960E9472050E947F0555
:100AB20008950E946104A3E0B0E00C946805A0E3ED
:100AC2000E944D0488EC90E00197F1F7089510968A
:100AD20039F080ED97E00197F1F7A8951197C9F7E2
:100AE20008950024AF0DB01D0895F195E195F040F1
:100AF20008956F2F660F660B762F0895ED91FC9186
:100B0200119708950590F491E02D08957A936A93D0
:100B1200FA93EA9308955A934A933A932A931A932B
:100B22000A9308955D814C813B812A811981088154
:100B32000895AC0FBD1F05900D928A95E1F70895B7
:00000001FF
