:020000000C945E
:10000200A8000C9400000C9400000C9400000C94C6
:1000120000000C9400000C9400000C9400000C945E
:1000220000000C9400000C9400000C9400000C944E
:1000320000000C9400000C9400000C9400000C943E
:1000420000000C9400000C9400000C9400000C942E
:1000520000001027E80364000A00010000100001FC
:100062001000010048617368656D690039383330EA
:100072003131330057656C636F6D6520746F207486
:100082006865204D6963726F70726F636573736F19
:1000920072204C61626F7261746F72792061742098
:1000A2004973666168616E20556E6976657273691F
:1000B2007479206F6620546563686E6F6C6F677920
:1000C2002E003031323334353637383941424344E9
:1000D20045462020202020202020202020202020D3
:1000E200200054656D703A3F3F2832302D3830433E
:1000F2002900573A3F3F28302D39396B67290000D4
:10010200000054696D653A3F3F28302D3939732913
:10011200000053706565643A3F3F28302D353072D8
:100122002900456E640080C0080060016600080076
:1001320068016E004E00700176001000C201C4001A
:100142000400BE0124010200D20128010000F8943B
:10015200EE27ECBBF1E0FBBFEBBFE5BF8DE0A2E019
:10016200BB27ED938A95E9F780E094E0A0E6ED9352
:100172000197E9F7EAE2F1E085919591009761F044
:10018200A591B59105901590BF01F00105900D92D2
:100192000197E1F7FB01F0CFEFE5EDBFE4E0EEBF41
:1001A200C0E6D1E00C94D50010E025D0E0E6F1E005
:1001B200FA93EA93A8E6B1E02AD0A8E8B3E10E9454
:1001C20059020E94DE01A0E7B1E030D00E94DE01B8
:1001D200E0EFE7BB75D01E2F103059F0E0E0EA9354
:1001E200A0E00E94D101A12F0E94EA0169D01E2F36
:1001F200F3CFEECFFFCFE0E0EABBEBBBE7BBE8BB60
:10020200E4BBE5BBE1BBE2BBA0E109D10895BA932F
:10021200AA93D3D0AA81BB81F1D0E0E0EA93A1E016
:10022200BFD0A881B981EAD024960895BA93AA933F
:100232000E94630200E010E00E943E02EC91E03076
:1002420021F0A8010F5F1F4FF7CF4F5F5F4F2FE0E5
:1002520030E03323B2F02A930E94440200E010E01F
:10026200E0E1F0E0E21BF30B0E171F073CF40E94E3
:100272003E02AC91AED00F5F1F4FF2CF2150304003
:10028200E8CF20E030E0FA013F972E173F07A4F4B1
:10029200E0E0EA930E9444028901F90170960E1788
:1002A2001F073CF40E943E02AC9193D00F5F1F4F98
:1002B200F4CF2F5F3F4FE7CF0E946A02289608953E
:1002C2002497E0E1E883E0E2E983E0E4EA83E0E81E
:1002D200EB830E94630254E600E010E00430E0E0A9
:1002E2001E07ACF5DE011696A00FB11FEC91E8BB1C
:1002F20024E130E0AAE0B0E00E945902B09B02C0C3
:1003020020E030E0B19B02C021E030E0B29B02C0AD
:1003120022E030E0B39B02C023E030E0E4E1F0E011
:10032200E217F30779F0E02FEE0FEE0FE20F5E2FE8
:10033200E0EFE8BBB099FECFB199FECFB299FECF04
:10034200B399FECFE0EFE8BB0F5F1F4FC7CFE52F9A
:10035200F0E0EE53FE4FE0810E946A022A96089571
:10036200AA93EBB3EF70AE2FE881E07FEA2BEBBBF1
:100372008DE08A95F1F7DA9A8DE08A95F1F7DA98AD
:100382008DE08A95F1F777C0AA93A881E9DFE88129
:10039200E295E883A881E4DF85E88A95F1F76BC0EE
:1003A200AA93E881F0E0EE52FE4FE081A981AE0F00
:1003B200EBDF5980488022960895A2E00E944B020A
:1003C200ACE0E2DFA1E00E944B02E0E04E2E5E2EA6
:1003D2000895AA93A881AA3011F0571448F0E0E0DA
:1003E200EA934394A42DDCDFA881AA3009F443C028
:1003F2005394D89AA881C8DFD8983DC0BA93AA93DB
:100402001A93A981BA81ED91A983BA831E2FE03094
:1004120019F0A12FDEDFF5CF188123960895AA9354
:10042200EAB3E06FEABBD29AD09AD19ADA98D89816
:10043200D9987880E881E058E093D401E881E054CB
:10044200E093D501A4E1B0E00E9459020E9451025A
:100452000E9451020E945102A0E282DF88EC90E0E9
:100462000197F1F7A8E290DFA4E08EDFA5E88CDF28
:10047200A6E08ADFA2DF21960895F801AE81BF814E
:10048200AE0FBF1F0895A1E00E94D101A0EAB0E023
:100492000C9459020E94C501A3E0B0E00C945902E9
:1004A200A0E30E94B10188EC90E00197F1F7089572
:1004B200109639F080ED97E00197F1F7A895119722
:1004C200C9F708955A934A933A932A931A930A932F
:1004D20008955D814C813B812A81198108810895AB
:00000001FF
