:060000000C9470000C944A
:1000060000000C949D000C9400000C9400000C94CD
:1000160000000C9400000C9400000C9400000C945A
:1000260000000C9400000C9400000C9400000C944A
:1000360000000C9400000C9400000C9400000C943A
:1000460000000C9400000C9400000C940000102793
:10005600E80364000A00010000100001100001001E
:1000660030313233343536373839414243444546E8
:10007600202020202020202020202020202020009A
:1000860054656D703A3F3F2832302D383043290091
:10009600573A3F3F28302D39396B67290000000059
:1000A60054696D653A3F3F28302D39397329000070
:1000B60053706565643A3F3F28302D35307229000C
:1000C600456E640080C01000640166000400600193
:1000D600C60002007401CA000000F894EE27ECBBCB
:1000E600F1E0FBBFEBBFE5BF8DE0A2E0BB27ED93E0
:1000F6008A95E9F780E094E0A0E6ED930197E9F7A9
:10010600ECECF0E085919591009761F0A591B591A1
:1001160005901590BF01F00105900D920197E1F74A
:10012600FB01F0CFEFE5EDBFE4E0EEBFC0E6D1E0C6
:100136000C94A400A09AA89B02C0A89801C0A89AF3
:100146001895E0E0EABBEBBBE7BBE8BBE4BBE5BB6D
:10015600E1BBE2BBEBB7E068EBBFECE0E5BFE0E09C
:10016600E4BFE0E8EABFA0E10E94A5027894E0EFD0
:10017600E7BBE8BB7FD0FFCFFFCF2497E0E1E88362
:10018600E0E2E983E0E4EA83E0E8EB830E945E03D1
:1001960054E600E010E00430E0E01E07ACF5DE01B6
:1001A6001696A00FB11FEC91E8BB24E130E0AAE05F
:1001B600B0E00E944003B09B02C020E030E0B19B5B
:1001C60002C021E030E0B29B02C022E030E0B39BE7
:1001D60002C023E030E0E4E1F0E0E217F30779F053
:1001E600E02FEE0FEE0FE20F5E2FE0EFE8BBB099C7
:1001F600FECFB199FECFB299FECFB399FECFE0EF15
:10020600E8BB0F5F1F4FC7CFE52FF0E0EC59FE4F5D
:10021600E0810E9465032A960895BA93AA9360978F
:1002260080E1A0E0B0E0E6E7F0E00E946C031A93FC
:100236000A93DE0112960E94E0021E2F00E0FE01E4
:100246003296FA93EA93AC89BD890E94D3020E9442
:10025600EC0200E0011750F4E02FF0E0DE01129608
:10026600AE0FBF1FAC915AD10F5FF4CF1981088131
:1002760064960895EF97219780E4A0E0B0E0E6E861
:10028600F0E00E946C030E94600318E709E730E083
:1002960021E321E3253308F0FCC0213309F045C0F2
:1002A6000E94EC02DE01D496B8DF0E94F3023030E1
:1002B600E1F514E704E70E94F7020E94FC020E949F
:1002C60006030E940C0331F4E6B3EF70E9F355DF41
:1002D6001E2FF5CF0E94F702A12F20D10E941103F5
:1002E60031F4E6B3EF70E9F348DF0E2FF7CFE7E01E
:1002F6000E9417030E941B030E940603E5E30E9467
:100306005903E02129F00E94110309F031E00CC0E5
:10031600A12FE5E30E94220311F031E005C030E091
:100326000E94F7020E942B03C2CF223381F530E0F0
:100336000E94EC02DE01949670DF303041F514E73E
:1003460004E7E5E00E9417030E94FC020E940603F0
:100356000E940C0331F4E6B3EF70E9F30EDF1E2FB3
:10036600F5CFE5E00E941703A12FD8D00E94110314
:1003760031F4E6B3EF70E9F300DF0E2FF7CF0E94FA
:10038600F702A02FCBD00E94F30231E0D6CF233361
:1003960089F530E00E94EC02DE0154963EDF3030F3
:1003A60049F514E704E7E2E00E9417030E94FC0205
:1003B6000E9406030E940C0331F4E6B3EF70E9F3E2
:1003C600DCDE1E2FF5CFE2E00E941703A12FA6D098
:1003D6000E94110331F4E6B3EF70E9F3CEDE0E2F7F
:1003E600F7CFE3E00E941703A02F98D00E94F302F4
:1003F60031E0D5CF243309F04AC030E00E94EC0248
:10040600DE0114960ADF303009F041C014E704E734
:10041600E5E00E9417030E94FC020E9406030E9468
:100426000C0331F4E6B3EF70E9F3A7DE1E2FF5CF28
:10043600E5E00E941703A12F71D00E94110331F449
:10044600E6B3EF70E9F399DE0E2FF7CF0E94F702BD
:100456000E941B03A12FE2E30E9454030E2EE7E342
:100466000E944F03E02129F00E94110309F031E0B8
:100476000DC0A12FE8E30E94220311F031E006C06F
:1004860030E0E5E00E9417030E942B03BCCF2F5FEC
:1004960001CFA0E6B1E0C1DEA0EDB7E00E944003C7
:1004A6000E946703EF9625960895AA93EBB3EF7023
:1004B600AE2FE881E07FEA2BEBBB8DE08A95F1F762
:1004C600DA9A8DE08A95F1F7DA988DE08A95F1F758
:1004D60065C0AA93A881E9DFE881E295E883A8814F
:1004E600E4DF85E88A95F1F759C0AA93E881F0E040
:1004F600EC58FE4FE081A981AE0FEBDF59804880B2
:1005060022960895A2E00E943203ACE0E2DFA1E069
:100516000E943203E0E04E2E5E2E0895AA93A88133
:10052600AA3011F0571440F0E0E0EA934394A42D6A
:10053600DCDFA881AA3091F15394D89AA881C9DF4B
:10054600D8982CC0AA93EAB3E06FEABBD29AD09AA5
:10055600D19ADA98D898D9987880E881E058E093CB
:100566007601E881E054E0937701A4E1B0E00E94CF
:1005760040030E9438030E9438030E943803A0E219
:1005860094DF88EC90E00197F1F7A8E2A2DFA4E0FF
:10059600A0DFA5E89EDFA6E09CDFB4DF21960895E4
:1005A600BA93AA93E991F991A991B991CD01619173
:1005B6006D936623E1F7FC010895BA93AA93A99176
:1005C600B991EE27FF276D91662311F03196FBCF87
:1005D60008950E948502E0E0EA93A0E00C94780278
:1005E600A8EEB3E00C944003E6E0EA93A0E00C9496
:1005F6007802AFE30E949102AFE30E949102A8E560
:10060600B2E00C944003A12FE0E30E9454030E2EA7
:100616000895E9E30E944F03E0210895A02FE0E347
:100626000E9454030E2EF5CFEA93A0E00C947802B4
:10063600A02F0E949102A4EFB1E00C9440030E9407
:100646004A030E2EA02FE0E30E944A03E0210895FC
:10065600A5E40E949102A5E40E949102C1CF0E94E6
:100666006C02A3E0B0E00C944003A0E30E945802A1
:1006760088EC90E00197F1F70895109639F080ED37
:1006860097E00197F1F7A8951197C9F70895EA172A
:10069600E1E009F0EE270895EA17E1E008F4EE2715
:1006A6000895AE17E1E008F4EE270895AE17E1E0ED
:1006B60008F0EE2708955A934A933A932A931A9389
:1006C6000A9308955D814C813B812A8119810881B5
:1006D6000895AC0FBD1F05900D928A95E1F7089518
:00000001FF
