:040000000C94380024
:100004000C9400000C9400000C9400000C9400006C
:100014000C9400000C9400000C9400000C9400005C
:100024000C9400000C9400000C9400000C9400004C
:100034000C9400000C9400000C9400000C9400003C
:100044000C9400000C9400000C9400000C9400002C
:100054001027E80364000A000100001000011000EA
:10006400010080C00200600166000000F894EE27E1
:10007400ECBBF1E0FBBFEBBFE5BF8DE0A2E0BB272B
:10008400ED938A95E9F780E094E0A0E6ED9301977B
:10009400E9F7E8E6F0E085919591009761F0A59184
:1000A400B59105901590BF01F00105900D9201974F
:1000B400E1F7FB01F0CFEFE5EDBFE4E0EEBFC0E612
:1000C400D1E00C946500E0E0EABBEBBBE8E0E7BB01
:1000D400E0E0E8BBE4BBE5BBE1BBE2BBEAE6E3BFCF
:1000E400E0E0E2BFECBFEFBDEEBDEDBDECBDE7BDB2
:1000F400E6BDEBBDEABDE9BDE8BDE2BDE5BDE4BDDD
:10010400E3BDE9BFE5BFE4BFEAB9E0E8E8B9E0E090
:10011400E0BFE6B9EDB9E6BFE0E8ECBFE0E0EABB7A
:10012400AAE0B0E003D02AD0FECFFFCFBA93AA93BF
:10013400A881B9811A9711F4EAE11DC0A881B98197
:100144005E9711F4EDE417C0A881B981D29711F438
:10015400E0E811C0A881B981A634E0E0BE0711F43B
:10016400E2EB09C0A881B981AA35E0E0BE0711F429
:10017400E5EE01C0E0E0ECBF229608951A930A93DD
:100184000FEF10E009B311270CBF099119910895DD
:00000001FF
