:100000000C944E000C9400000C9400000C94000022
:100010000C9400000C9400000C9400000C94000060
:100020000C9400000C9400000C9400000C94000050
:100030000C9400000C9400000C947B000C940000C5
:100040000C9400000C9400000C9400000C94000030
:100050000C9400001027E80364000A00010000105F
:10006000000110000100202020202020202020203E
:10007000202020202000090043683A2564202825FC
:1000800064206D76290080C00F00720166000100B7
:10009000920176000200950186000000F894EE2798
:1000A000ECBBF1E0FBBFEBBFE5BF8DE0A2E0BB27FF
:1000B000ED938A95E9F780E094E0A0E6ED9301974F
:1000C000E9F7E8E8F0E085919591009761F0A59156
:1000D000B59105901590BF01F00105900D92019723
:1000E000E1F7FB01F0CFEFE5EDBFE4E0EEBFC0E6E6
:1000F000D1E00C9497000A921A92FA926A937A933A
:100100008A939A93AA93BA93EA93FA93EFB7EA93EE
:10011000CFD0E991EFBFF991E991B991A991999166
:10012000899179916991F990199009901895E0E079
:10013000EABBEBBBE7BBE8BBE4BBE5BBE1BBE2BBB7
:10014000EAE6E3BFE0E0E2BFEAE1ECBFE0E0EFBDFA
:10015000EEBDEDBDECBDE7BDE6BDEBBDEABDE9BD65
:10016000E8BDE2BDE5BDE4BDE3BDE9BFE5BFE4BF79
:10017000EAB9E0E8E8B9E0E0EDB9E6BFA0E10E9445
:10018000F30309D086D00BD07894EFEFE7BB06D10C
:100190001BD1FDCFFFCFE0E4E7B9E3EA03C0E0E421
:1001A000E7B9EBEEE6B9E0E0E0BF0895AA93E88195
:1001B000E064E7B98BE18A95F1F7369A349BFECF7C
:1001C000349AE4B1F5B10C941F04BA93AA930E9437
:1001D0003A04AC810E943F04E0917001F0917101FA
:1001E0000E9495050E9404050E9446048F0130C1BB
:1001F000AA930E943A04AA810E943F04EA81EA93EA
:10020000A0917001B0917101E0DF8F01EA81A2E855
:10021000B1E0F0E0EE0FFF1FEA0FFB1F0083118338
:10022000198108810C94F103AA93E2E7F1E0FA93B3
:10023000EA93E8E7F0E0FA93EA93EC81FF27662778
:1002400077270E94B505E885A2E8B1E0F0E00E94BA
:100250004F04662777270E94B50588E00E94600357
:100260002C96A2E7B1E00E94E2030C941F040E94C6
:100270003A040830E0E01E075CF4A02FD5DFA4EFBD
:10028000B1E00E9494040E94C1030F5F1F4FF1CFA1
:100290000CC00E943A040830E0E01E072CF4A02FA6
:1002A000A7DF0F5F1F4FF7CFE2DF09911991089584
:1002B000E0919401A0E6B1E0F0E0EE0FFF1FAE0F79
:1002C000BF1FE4B1F5B1ED93FC93A0919401AF5F32
:1002D000A0939401A83018F0E0E0E0939401E0913D
:1002E0009401E05CE7B98BE18A95F1F7369A0895BD
:1002F0002197E0E0E8830E94BA0500E010E020E0EA
:1003000030E040E050E00830E0E01E07D4F5F801AE
:10031000A0E6B1E00E944F04662777270E940405FB
:100320000E9446049F010E9456042E173F0728F49E
:100330000E945604E21BF30B06C00E945604DF0124
:10034000F901EA1BFB0BAF010E945604DF01E4E157
:10035000F0E00E949A05E417F50780F4F801A2E89E
:10036000B1E0EE0FFF1FEA0FFB1F208331830093E4
:10037000920110939301E1E0EE8303C00F5F1F4FE2
:10038000C2CFEE81E03031F4EAE0F0E0E093920198
:10039000F09393010E94C10527960895A9DFA091CB
:1003A0009201B0919301189724F4A0919301AA238C
:1003B0000AF409C00E94C103A091920135DFA4E6AE
:1003C000B0E00E9494040895E0916001F091610111
:1003D0000E949005ECBF0895BA93AA931A930A93CA
:1003E000AA81BB8112960E94AD05309759F1AA816E
:1003F000BB8114960E94AD058F01309761F00230E9
:10040000E0E01E0798F0F80131978F01AA81BB81C7
:100410001496ED93FC93AA81BB811296ED91FD9108
:100420003196FE93EE933197AC81A083AA81BB8174
:100430000E94AD05FF232AF0ED91FD913196FE93C8
:10044000EE9306C0AA81BB81EFEFFFEFED93FC9323
:100450001981088125960895BA93AA9326970E9438
:10046000BA0510E0AC85BD85E0E0F0E0ED93FC93CB
:10047000EA89FB893196EA8BFB8B3197E4912E2F29
:10048000E03009F415C1E12FE03039F4253211F4E0
:1004900011E002C00E945A040AC1E130A9F42532D9
:1004A00019F40E945A0402C112E040E000E02D322B
:1004B00011F401E0FCC02B3211F44BE2F8C0203201
:1004C00011F440E2F4C002C0E23039F450E013E02D
:1004D000203311F40068EBC003C0E33009F0E7C03B
:1004E000203310F02A3308F007C0AAE05A9F502D9D
:1004F000E22FE0535E0FDBC0E22FE33649F40E94A7
:100500006104E889F989A481AA930E946704CEC096
:10051000E33741F40E9461040E946D040E942104AB
:100520001E2F0AC0E03761F40E9461040E946D042E
:100530000E942D041E2F086002600F7730E034C047
:10054000E43611F0E93611F4046002C0E53731F405
:10055000E4E5F0E0EE83FF8315E00CC0E83511F42C
:10056000086003C0E83709F0A1C0EEE5F0E0EE83D3
:10057000FF8314E002FF14C00E9461040E9477040C
:10058000AB85AA233AF4EA85FB850E948405EA87B5
:10059000FB874DE2403011F01F5F01C00B7F04C0AC
:1005A0000E9461040E94770400FD11C0151778F4C1
:1005B00007FF08C002FF04C00B7F242F115001C0A9
:1005C00020E301C020E20E945A045150EFCF312FA6
:1005D00001FF17C03030A1F003FF06C0EE81FF819C
:1005E0002591EE83FF8305C0AE81BF812D91AE833F
:1005F000BF830E945A04503009F051503150EACF65
:100600004BC020E3EE81FF810E94B105E887F987A6
:10061000EE81FF813296EE83FF83E885F985AA8516
:10062000BB85AE17BF0750F02F5FA885B985EA8557
:10063000FB85EA1BFB0BEA87FB87EFCF2A3328F009
:1006400003FF02C0295F01C0295D04FD1AC02133E8
:1006500020F4A885B985119709F409C0531710F043
:1006600000FF01C013C020E207FF0BC020E30061C0
:1006700002FF07C00B7F4A930E946704503009F0C5
:1006800051500E945A04503009F051503150A88501
:10069000B985129708F0B5CF00FF08C0503031F08F
:1006A0005150E0E2EA930E946704F8CF10E0E0CEF8
:1006B000AC85BD850E94AD050E94C1056496089574
:1006C000FF92F82E26970E94BC050E947F04309767
:1006D00019F4EFEFFFEF23C0DE0116960E948005AC
:1006E0008D010E947F04EE83FF83E0E0E887E987C5
:1006F000DE011A960E9480050E94AD05FA93EA93E6
:100700001A930A93ECEEF1E0FA93EA93DE011A965B
:10071000A3DE9F01AE81BF81E0E0EC93F9010E946E
:10072000C3052A96FF900895AA93E5B3EF70AE2F04
:10073000E881E07FEA2BE5BB8DE08A95F1F7AA9A84
:100740008DE08A95F1F7AA988DE08A95F1F777C048
:10075000AA93A881E9DFE881E295E883A881E4DF34
:1007600085E88A95F1F76BC0AA93E881F0E0EB5633
:10077000FE4FE081A981AE0FEBDF598048802296C1
:100780000895A2E00E948604ACE0E2DFA1E00E94AE
:100790008604E0E04E2E5E2E0895AA93A881AA302A
:1007A00011F0571448F0E0E0EA934394A42DDCDF05
:1007B000A881AA3009F443C05394A89AA881C8DF3D
:1007C000A8983DC0BA93AA931A93A981BA81ED91D2
:1007D000A983BA831E2FE03019F0A12FDEDFF5CFF9
:1007E000188123960895AA93E4B3E06FE4BBA29A1C
:1007F000A09AA19AAA98A898A9987880E881E05828
:10080000E0939701E881E054E0939801A4E1B0E01F
:100810000E9494040E948C040E948C040E948C0408
:10082000A0E282DF88EC90E00197F1F7A8E290DF88
:10083000A4E08EDFA5E88CDFA6E08ADFA2DF2196A8
:100840000895BA93AA93A991B991EE27FF276D91C4
:10085000662311F03196FBCF0895BA93AA93AA2785
:10086000BB27E991F9910590002011F01196FBCF7B
:10087000FD0108951A930A9300E010E008950E9484
:10088000D600E0937001F09371010895A6EFB8E2ED
:100890008CE990E40E9432050E94CD040895EE0F89
:1008A000FF1FAE0FBF1F0E94AD050895F801A2E81B
:1008B000B1E0F5CF2A93AD85BE85EF85F88909951E
:1008C0000895E889F9893497E88BF98B0895AD8507
:1008D000BE85EF85F88909950895A889B989149688
:1008E0000E94AD05EE83FF83AE81BF810895A88984
:1008F000B98914960E94AD05EA87FB870895DE0149
:100900001C960E9480050E94AD0508950E94A803D0
:10091000A3E0B0E00C949404A0E30E94940388EC5C
:1009200090E00197F1F70895109639F080ED97E087
:100930000197F1F7A8951197C9F70895552342F447
:10094000503811F4E0FF04C03196691F791F6BF035
:1009500050E8572711F45F9373C05F3F31F0660F83
:10096000000C57956795752F08955F9300200AF046
:1009700073C06CC050E8192E1522880F991F952757
:10098000550F879550E8072E0522660F771F7527AC
:10099000550F67950895689401C0E8945F93F2DF5E
:1009A000703818F07F3F08F44BC056E1571BAAF48B
:1009B000519558300EF4593030F0EFEFFFEF6FEFF4
:1009C0007FE777F91AC077275523B9F0EE0FFF1F9D
:1009D000661F771F5A95D1F710C07727583028F037
:1009E000EF2FF62F672F5850F9CF552331F076951A
:1009F0006795F795E7955A95D1F700200AF488D0C6
:100A00005F910895689401C0E89430976040704009
:100A1000B1F0002426F0772312F4009479D0172E39
:100A20007EE1112032F07A95EE0FFF1F661F111C38
:100A3000F9CFEF2FF62F612D5F938ADF5F91089535
:100A4000EE27FF27662777275F910895EFEFFFEFE7
:100A50006FE77FEF5F910895EFEFFFEF6FE77FE7BD
:100A60005F9108955F9386DF703851F3903841F3BA
:100A700001240894791F23F41CF300203AF3ECCFEF
:100A80000F921F932F933F934F931127222799275C
:100A9000689FA0018F9F302D410D591F6B9F300D16
:100AA000411D591F8E9F27D0BF9F25D06A9F23D0FD
:100AB000BE9F1DD0AF9F1BD0AE9F110D291F391FA8
:100AC000491F591FE32FF42F652F522F4F913F914C
:100AD0002F911F910F9066232AF0550FEE1FFF1FD5
:100AE000661F02C073954BF229DF5F910895100DC8
:100AF000211D391F02C0200D311D491F591F0895A6
:100B00000024AF0DB01D0895F195E195F0400895D2
:100B1000F09560957095E195FF4F6F4F7F4F089569
:100B2000F695E795F695E79508956F2F660F660B96
:100B3000762F08950024112490E1AA0FBB1F001CFA
:100B4000111C0E1A1F0A18F40E0E1F1E01C0A16000
:100B50009A9599F7FD01D0010895ED91FC911197B7
:100B600008950590F491E02D08957A936A93FA938D
:100B7000EA9308955A934A933A932A931A930A93BD
:100B800008955D814C813B812A81198108810895F6
:00000001FF
